:020000021000EC
:040000006F0090718C
:1000040000000000000000009000002078020020A2
:10001400A9BDF9F5940000200000000000000000D4
:10002400960000209800002000000000000000005E
:100034009A000020000000009C0000200000000046
:100044009E000020A0000020A2000020A4000020A8
:10005400A6000020A800002084070020AC00002097
:10006400AE000020B000002050070020B4000020A3
:10007400B6000020B8000020BA000020BC00002018
:10008400BE000020C0000020C2000020C4000020E8
:1000940001A001A001A001A001A001A001A001A054
:1000A40001A001A001A001A001A001A001A001A044
:1000B40001A001A001A001A001A001A001A001A034
:1000C40001A001A001A0B71700409306700523808A
:1000D400D704130780FA2380E7040100010003C654
:1000E400B7041376F60DA385C7042380070413769B
:1000F40005024DC203C6A700118A1DE22380D7045E
:100104002380E7040100010003C7A7001367470029
:100114002385E7009307004B01000100FD17EDFF65
:10012400B7170040930670052380D704130780FA9D
:100134002380E704010001007D892394A7000100C6
:10014400010001000100238007042380D7042380D9
:10015400E704010001000100010037270040930675
:100164001005A303D78023800704B71700401307A3
:1001740070052380E704130780FA2380E704010055
:10018400010003C7B70413670708A385E7042380A6
:10019400070482801376050441C603C6A700418A7A
:1001A4001DE22380D7042380E7040100010003C774
:1001B400A700136707012385E7009307007D01006B
:1001C4000100FD17EDFFB71700409306700523806B
:1001D400D704130780FA2380E70401000100137693
:1001E400F501136606042394C70001000100010011
:1001F4000100238007042380D704130660042380AE
:10020400E7046318C5000100010037270040894650
:1002140089BF01000100372700409306200591B7EC
:100224002380D7042380E7040100010003D787005B
:100234001367070C2394E7000DBF41118146014663
:100244008145114506C6EF003016B7170040130765
:1002540070052380E704130780FA2380E704010074
:10026400010003C76704136717002383E70423808F
:100274000704B2404101828081460146814511450F
:10028400EF009012B7170040930670052380D7043F
:10029400130780FA2380E704010001007D562396AA
:1002A400C7022380D7042380E7040100010003C7A9
:1002B4006704136717002383E7042380070401A05E
:1002C400BD473305F50201007D1575FD828041119E
:1002D40022C426C206C6AA84014463179400B2400D
:1002E400224492444101828005041305803E420465
:1002F400C13F4180DDB7B717004003A7870AA16556
:1003040061761367470023A4E70A83A6870A7D164C
:10031400CD8E23A4D70A83A6870A93E6160023A4C6
:10032400D70A83A6470BED9A23AAD70A83A6070AFE
:1003340093E6460023A0D70A83A6470BF18E23AA8F
:10034400D70A03A7070A4D8F23A0E70A03A7470B81
:10035400799B23AAE70A03A7070A1367170023A0B8
:10036400E70A8280B717004003A7870AA165617670
:100374001367470023A4E70A83A6870A7D16CD8E58
:1003840023A4D70A83A6470BED9A23AAD70A83A6E8
:10039400070A93E6460023A0D70A83A6470BF18EEB
:1003A40023AAD70A03A7070A4D8F23A0E70A82804E
:1003B400B717004003A7470B21666D9B23AAE70AE2
:1003C40003A7070B1367470023A8E70A03A7070A35
:1003D4006D9B23A0E70A83A6470B61777D17F98EEF
:1003E40023AAD70A83A6070BD18E23A8D70A83A6EC
:1003F400070A758F23A0E70A03A7470B799B23AA53
:10040400E70A03A7070B1367170023A8E70A03A744
:10041400070A799B23A0E70A8280B717004003A547
:10042400470A3D8105898280371700408327870A60
:10043400A166D58F2324F70A8280371700408327CB
:10044400C70AA166D58F2326F70A8280B717004012
:1004540003A5470A0981058982803717004083274D
:10046400870A93E747002324F70A8280371700405E
:100474008327C70A93E747002326F70A8280B71722
:10048400004003A7870A1367470023A4E70A03A7CA
:10049400470B6D9B23AAE70A03A7070A13674700C4
:1004A40023A0E70A8280B717004003A7870A1367CF
:1004B400470023A4E70A03A7470B6D9B23AAE70A77
:1004C40003A7070B6D9B23A8E70A03A7070A6D9BE5
:1004D40023A0E70A8280B717004003A5470A0589CD
:1004E400828005893717004001C98327870A93E76B
:1004F40017002324F70A82808327C70A93E717008B
:100504002326F70A8280B717004003A5470A05810E
:100514000589828001458280B717004003A5470AF8
:10052400118105898280B71700401DE103A7C70A1E
:100534001367070123A6E70A03A7470B3D9B23AADA
:10054400E70A03A7070A1367070123A0E70A8280C3
:1005540003A7470B3D9B23AAE70A03A7070B1367CF
:10056400070123A8E70A03A7070A3D9BF9BF37172A
:10057400004001E98327870A93E707202324F70A29
:1005840082808327C70A93E707202326F70A8280FD
:10059400856793870780B716004019E503A7860A85
:1005A400D98F23A4F60A828003A7C60AD98F23A66B
:1005B400F60A82800145828041112AC6B247FD179E
:1005C4003EC6EDFF41018280171301E0670043C37B
:1005D40001458280371700408327870AA166D58F9B
:1005E4002324F70A8280371700408327C70AA166AD
:1005F400D58F2326F70A8280371700408327870A7E
:1006040093E747002324F70A8280371700408327A3
:10061400C70A93E747002326F70A8280058937171C
:10062400004001C98327870A93E717002324F70AA8
:1006340082808327C70A93E717002326F70A82805C
:10064400B717004003A5470A058105898280411137
:100654002AC6B247FD173EC6EDFF4101828017133B
:1006640001E06700E3B9371700408327870AA166D2
:10067400D58F2324F70A8280371700408327C70ABF
:10068400A166D58F2326F70A828037170040832777
:10069400870A93E747002324F70A8280371700402C
:1006A4008327C70A93E747002326F70A8280B717F0
:1006B400004003A5470A0981058982800589371707
:1006C400004001C98327870A93E747002324F70AD8
:1006D40082808327C70A93E747002326F70A82808C
:1006E400B717004003A7870A1367470023A4E70A44
:1006F40003A7470B6D9B23AAE70A03A7070A1367FF
:10070400470023A0E70A8280B717004003A7870A9F
:100714001367470023A4E70A03A7470B6D9B23AA8B
:10072400E70A03A7070B6D9B23A8E70A03A7070A99
:100734006D9B23A0E70A828041112AC6B247FD17A8
:100744003EC6EDFF41018280171301E0670043AB11
:1007540037370040834747009146BD8B6389D700F4
:1007640099466394D700834757007300203083452C
:10077400870013858196E205E185974001E0E780D3
:10078400E0A6E5B70111A307010022CE26CC4ACA90
:100794004EC8378400408347640093F7F70FA307DC
:1007A400F1008347F100898B63830730834774002A
:1007B4001307000393F70703638EE706834474006B
:1007C40083477400BD8893F707036380071E1307EC
:1007D4000002639CE7041389C1B4639F041083C7B8
:1007E40001CD9D83E9CF8347240293C707042301E6
:1007F400F4028347240293F7C70F93E727002301EA
:10080400F4028327490183C501B563F2F50A8D8F8C
:1008140023A0F1B683278901BE9523A2B1B613059F
:100824000008974001E0E7802070B787004009473F
:100834002383E7003784004083477400E207E1879D
:1008440063D00706930720FC2301F4029384C1B408
:1008540083A5840C2146138501CD975001E0E780E0
:10086400408E8387441863CA070023000402834729
:10087400240293F7C70F2301F4023784004083470F
:100884002402138501CD93F7370F93E787002301E3
:10089400F402974001E0E780E05789472303F4001E
:1008A4007244E2445249C2490561730020308325F1
:1008B4008901BE9523A2B1B623A001B68DB703C7A3
:1008C40011CD9547631BF7008347340003470900A4
:1008D40093F70708D98FA301F4008347240293F701
:1008E400C70F93E727002301F4028347240293F7F9
:1008F400370F2301F40215BF91476398F40083472F
:10090400240393C707042309F402154433D484024F
:10091400930700033304F402939724003E94B787AB
:100924000040938727023E948347040093F7C70F40
:1009340093E727002300F400E147B387F402CA9742
:10094400D84B03C64700944F6379E6048C4B118F50
:10095400B296B2958CCBD8CB94CF88476376E60217
:10096400974001E0E780E07DE147B384F4028547E6
:10097400CA9403C75400630BF7008347040093F73A
:10098400C70F2300F40055B53A86D9BF8347040046
:1009940093F7C70F93E71700EDB7B305D7008CCFD4
:1009A40023AA070013E50408ADBDB1E4834724027C
:1009B400834484001389C1B493C707082301F40254
:1009C4008325890C0325090D2686974001E0E780DD
:1009D40040778325890D0145A69523A2B1C28327BB
:1009E400490D858F23A0F1C2974001E0E780005AAA
:1009F400E39D04E2DDBD8347740093F70704E386B7
:100A040007E291476398F4008347240393C70708D8
:100A14002309F4026144B3878402B7890040138434
:100A2400C1B403C989004A863E948325840C0325F6
:100A3400040D974001E0E780C0708327040D8325EF
:100A4400840D0347440CCA972328F40C8327440DD0
:100A5400CA95232CB40CB3872741232AF40C63636F
:100A6400E90099E72685974001E0E780205275BBAD
:100A74009547B3D7F402130700038A049389290224
:100A8400B387E7020347540CBE948547CE946309A9
:100A9400F70083C7040093F7370F2380F40071B382
:100AA40083C7040093F7370F93E74700FDB78347E5
:100AB400F100858B99CFA3010400974001E0E78002
:100AC40000328347240293F7370F2301F40285474A
:100AD400F1B38347F100918B89C783475400914751
:100AE40075BB8347F10093F7F70F4DBB23030480D5
:100AF40015472303E48001002302A4808280830736
:100B04006480E3CE07FE230304808280830764802D
:100B1400E3CE07FE03454480828083076480E3CEEE
:100B240007FE2302A4808280411126C44AC24EC01B
:100B340006C61377F50BAD47AA892E89954463063B
:100B4400F70019456537653F8D444E854537FD5996
:100B5400FD1463983401B240A24412498249410110
:100B64008280135509011375F50F453F2209CDB74E
:100B7400011126CC06CEB704080051371545BD3700
:100B8400713769372AC6A53F32459377150089EB3B
:100B9400136515001375F50FF240E2440561828078
:100BA400FD14E9FC0145CDBF397126DC4ADA4ED883
:100BB40052D656D45AD25ED006DE62CE66CCB7E7A1
:100BC40000E07D5783AA070022C603AA470023A09A
:100BD400E71823A2E718B71700401307700523800E
:100BE400E704130780FA2380E70483C74704930BC1
:100BF40075FFB684E20793FBFB0F8546AA892E8B0B
:100C0400328937240040E187015763FA760163088B
:100C1400D5008946130700026313D5000157D98F05
:100C240093F7F70FB71C00402382FC0411472303FA
:100C3400E4801305F00F5D3D094CD135636D7C11E3
:100C4400B7050700DA9537870700795563F2E5049D
:100C5400B3879500636EF702370B0800A94733EB9F
:100C640065016399F90689E48144513D26850DA007
:100C7400DA850945553D05090345F9FFFD14050BC2
:100C8400693D81C49377FB0FFDF7DD3569FD7D5523
:100C9400B7170040130770052380E704130780FA91
:100CA4002380E70403C74704418B2382E704F250FF
:100CB400B7E700E023A0571123A24711E2543244BE
:100CC4005259C259325AA25A125B825B724CE24C9C
:100CD40021618280A5476395F90685691309F00FA0
:100CE400B3069900B3742B01B6941349F9FFB37496
:100CF4009900856B33796901416B9387F9FFB3F7E9
:100D0400270199E363FC340193D94900C147E3E621
:100D140037FF99BF0569C1697D19D9B71305800DDE
:100D240063886901130500026384790113051008BF
:100D3400CA85DD3B353D21DD4E99B3843441D9B7B5
:100D4400DA852D45D533CA94E30099F205097D3B34
:100D5400A30FA9FED5BF9387F9FF93F7F70F63613C
:100D6400FC0C83C71C0413073008631FF704370700
:100D74000800636BEB04B3079B00B706100063F530
:100D8400D704334BEB0089476393F9068980D5492F
:100D9400E38C04ECDA850945413B11090327C9FFBB
:100DA40091472320E48003076480E34E07FE230376
:100DB4003481FD17EDFBFD14110B81C49377FB0FF8
:100DC400E9FF7D3371F5E1B5B717004003C7570458
:100DD400B70708001377070219E3B78707007955A7
:100DE400E378FBEA33079B00E3FFE7F855B5854753
:100DF400E382F9F2DA852D45053B9389F4FFE38517
:100E040004E6293393F7390091EB83260480032702
:100E1400090093074900E39AE6E43E89CE84F1BFD2
:100E2400B5476396F9001305900BC93135BDB14739
:100E34001305B00AE38BF9FE99476391F904B705EA
:100E44000800B365BB002D45C53181448D4BA149D4
:100E5400753963967401832704802320F90085047F
:100E6400E39834FF8327048013172B01635507008D
:100E74002312F900D5BB2322F900FDB39D476399E2
:100E8400F90281451305B0044531BD44232009000E
:100E940023220900FD599D3993F77400CA9703C7AB
:100EA4000700FD14398D2380A700E39634FF6DBB42
:100EB400A1476392F9046D398144630D0B008D479A
:100EC4009304C0036308FB009304000563048B01CF
:100ED400930440041375C507E30895D819453931BF
:100EE40039390545213126850D3909453D314931C9
:100EF400E31C05D669BB91476399F90013056006A5
:100F0400F536F53E130590090DB7E38F09D4F15476
:040F1400A9BB000075
:100F18009711FF1F938181871771FF1F1301010E1E
:100F280017F5FFFF1305C50D97F5FE1F9385050DF2
:100F38001706FF1F1306C6FD63FAC50083220500C6
:100F480023A0550011059105E3EAC5FE17650000C9
:100F5800130505AE9705FF1F938585FB138601834F
:100F680063FAC5008322050023A0550011059105E9
:100F7800E3EAC5FE138501839385C1076377B5004E
:100F8800232005001105E36DB5FEFD42739002BCF8
:100F98008D42739042809302800873A0023097F2CA
:100FA800FE1F9382A20593E232007390523097029B
:100FB80000009382423F73901234730020303D4307
:100FC8002A876373C3029377F700BDEFADE5937685
:100FD80006FF3D8ABA960CC34CC30CC74CC74107E1
:100FE800E36BD7FE11E28280B306C3408A069702FC
:100FF800000096966780A6002307B700A306B700EF
:101008002306B700A305B7002305B700A304B7005C
:101018002304B700A303B7002303B700A302B70054
:101028002302B700A301B7002301B700A300B7004C
:101038002300B700828093F5F50F93968500D58D30
:1010480093960501D58D61B7939627009702000006
:1010580096968682E78086FA9680C1171D8F3E96FF
:10106800E374C3F8A5B7914763EEB70217570000BA
:101078001307C73C8A05BA959C41BA978287B71768
:10108800004003A7470B1345F5FF698F23AAE70A1A
:1010980003A7070B698F23A8E70A03A7070A798D17
:1010A80023A0A70A8280B717004083A6470B1347DF
:1010B800F5FFF98E23AAD70A83A6070B558D23A817
:1010C800A70A83A6070A758F23A0E70A8280B717A5
:1010D800004003A7470B498F23AAE70A03A7070B7A
:1010E8001345F5FF45BFB717004083A6470B1347C5
:1010F800F5FF758F23AAE70A03A7070A598D4DB78D
:10110800B717004003A7470B498FEDB7914763EE28
:10111800B702175700001307A7338A05BA959C41F1
:10112800BA978287B717004003A7470D1345F5FF05
:10113800698F23AAE70C03A7070D698F23A8E70C7B
:1011480003A7070C798D23A0A70C8280B71700404E
:1011580083A6470D1347F5FFF98E23AAD70C83A65C
:10116800070D558D23A8A70C83A6070C758F23A000
:10117800E70C8280B717004003A7470D498F23AAC1
:10118800E70C03A7070D1345F5FF45BFB717004048
:1011980083A6470D1347F5FF758F23AAE70C03A70E
:1011A800070C598D4DB7B717004003A7470D498F56
:1011B800EDB7B717004003D5870042054181937703
:1011C800050491EB9377F5013755E8011305058080
:1011D8003345F50282809377050C13070004639763
:1011E800E7009377F50137459C1CCDB721651305BA
:1011F80005D08280B7F700E08847CC4782808147D6
:1012080037370040A14663C4C70032858280034552
:10121800B740E38EA6FE3385F50003450500850734
:101228002304A740CDB7411122C406C62A845137EA
:101238002947B307E502B2408D83B3D7870222441A
:101248009507B3D7E70237370040C207C183231693
:10125800F70041018280716541111305052006C61A
:10126800D937B7370040130770F82381E7000D47D7
:10127800A381E70013070004A380E700054723873D
:10128800E700B2404101828037370040834727009A
:101298001A0593F7F703C98F93F7F70F2301F700A0
:1012A8008280B737004003C7170019C9D98DA380BA
:1012B800B70003C70700136787002380E700828011
:1012C80093C5F5FFF98DA380B7008280B73700403A
:1012D8002147B736004091E1828003C6B700E30C8E
:1012E800C7FE05050346F5FFFD15C2052384C600A4
:1012F800C181D5B7411122C406C62A845D3D29475C
:10130800B307E502B2408D83B3D78702224495071D
:10131800B3D7E70237370040C207C1832316F74027
:1013280041018280716541111305052006C6D93730
:10133800B7370040130770F82381E7400D47A381B2
:10134800E74013070004A380E74005472387E740E9
:10135800B24041018280371700408327870A411134
:1013680006C693E707202324F70A854513050010CE
:10137800DD398D4513050020FD31B24041015DB7CF
:1013880041111305400606C697F0FE1FE780E0F3FB
:10139800B240B7E700E03707400023A0E71041015B
:1013A800828041111305600406C697F0FE1FE7808E
:1013B80040D155371755000013054530EF30B0744C
:1013C800B7F700E0795690CBFD56D4CB37E700E06D
:1013D80085662320D7101307F00298C3EF20504DDD
:1013E80001A0597186D6A2D4A6D2CAD0CECED2CC6C
:1013F800D6CADAC8DEC6E2C4E6C2EAC06EDE8347F1
:1014080005007D4793C607086363D702EF10A02045
:10141800B650265496540659F649664AD64A464B5B
:10142800B64B264C964C064DF25D6561828013875B
:1014380015003AC42380F5007547AE846374F7003D
:101448006F10801C175700001307C7018A07BA9747
:101458009C43AA8ABA978287834715001D476388E9
:10146800E70C636FF7020D476380E70A6360F702D2
:1014780005476381E70809476383E708014537049F
:101488000200A380A4000904229559B71547638B6D
:10149800E7086370F70897F0FE1FE7802013C5B7C9
:1014A8001307000F638FE708636DF7002147638513
:1014B800E7082547E394E7FC97F0FE1FE780001153
:1014C8007DBF1307E00F638CE7086362F708130713
:1014D800100FE395E7FA930700042381F5009307BB
:1014E8002004A381F500BD472382F500A3820500EF
:1014F800114571B797F0FE1FE780400D49B797F087
:10150800FE1FE780A00CA5BF97F0FE1FE780000C28
:10151800BDB719469385818213852400EF30B04109
:101528001945B1BF97F0FE1FE780400A89BF97F0C1
:10153800FE1FE780A009A1B797F0FE1FE78000090A
:101548003DBF930730032381F40005450DBF930782
:1015580000042381F500A381050009450DB78547DF
:10156800DDB78347150089CF05476385E702FD5737
:10157800A380F5003704020005044165050529B775
:1015880003452500058997F0FE1FE78000FEA3802C
:101598000400CDB703452500058997F0FE1FE780B5
:1015A800E0FEF5B78347150099CB05476389E70047
:1015B8000947638FE7008147A380F40059AC85474A
:1015C8002380F18697F0FE1FE78080D98547EDB725
:1015D8002380F18697F0FE1FE780A0D18947E9BFF5
:1015E80023800186054497F0FE1FE78020DCA38056
:1015F800040061B783C72A0003451500A207C98FF5
:1016080039453385A70297F0FE1FE780A0FA41B756
:1016180097F0FE1FE780C0F92381A400A38004008F
:101628000944A1BF83474500034435008349250089
:10163800A207C18F0344550013FA19000349150086
:101648004204C18F0344650062045D8C63090A008B
:1016580093771900D5C397F0FE1FE780A0DC93FAB3
:10166800290063890A0093772900C1CF97F0FE1FEC
:10167800E78060DE13FB490063080B00135529005F
:1016880097F0FE1FE780A0E5939B890193DB8B41D0
:1016980063D80B001355790097F0FE1FE78060E8C8
:1016A80035E497F0FE1FE78000D72A8497F0FE1FE5
:1016B800E78080D92A8997F0FE1FE78080E10A0534
:1016C80006093369A90097F0FE1FE78080E30E053D
:1016D80033648900498C97F0FE1FE78060E31605A4
:1016E800498C97F0FE1FE780E0E21E05418DA3803C
:1016F800A4003704060049B597F0FE1FE780A0D381
:10170800B9BF97F0FE1FE78020D6ADB7B7C72D0049
:101718009387076C63F387003E8497F0FE1FE7808A
:1017280060EA935719002A8C3EC4935C2900135D24
:101738005900935D790093F90902631E0A026389CF
:101748000A0097F0FE1FE78020D0A247639BA702FC
:1017580063080B0097F0FE1FE780A0D76393AC02E5
:10176800639A0902E3DF0BF297F0FE1FE78080DA45
:10177800E389ADF239A097F0FE1FE780C0C9E30006
:10178800A9FC97F0FE1FE780E0E333058541E36697
:1017980085FA01BF97F0FE1FE78080D7E304ADFC10
:1017A800CDB703472500834715002207D98F034784
:1017B800350042075D8F83474500E2075D8F19E7D3
:1017C800FD57A380F500370404007DB3B737310116
:1017D8009387F7CF63FBE7008547A380F1868547AA
:1017E80023A2F186A3800400F9BFA3800186B7670E
:1017F80062029387F79FBA97B3D7E70289460547EE
:101808006386D7008D07194733D7E70223A2E186FD
:10181800D1BF034415009305250019E013040010F7
:1018280022851D04EF1090550D80A3800400050447
:1018380042041364140091B38347150013F737006B
:1018480089830507858B238CE186A38CF186A38089
:101858000500416415B3A38005008349150013846E
:10186800250093072500854A85447D5CFD1963970B
:101878008901139404013364540101B303CB0700B5
:10188800138A17001379FB03631409001309000472
:10189800931B8B011D0993DB8B411359390063D8C6
:1018A8000B0297F0FE1FE780C0BF2286D2855A85BB
:1018B800EF1030556396090097F0FE1FE780E0BBF4
:1018C800850463DB0B004A94CA9AD28745B797F020
:1018D800FE1FE78080BAD1BF4A9ACA94FDB7A38099
:1018E800050003441500138B250093072500054ABE
:1018F8008544FD5B7D1463177401139404013364FC
:101908004401A5B983C90700938A170013F9F9039D
:1019180063140900130900044E851D095A86D685EB
:1019280013593900EF001050E2091307190093D931
:101938008941B3872A01BA94E3DE09FA4A9B4A9A95
:1019480055BF03441500138701863A86238D818687
:10195800BA85814681478505090663EC86001386AA
:10196800018681460507090663E08602A380040014
:101978007DBD3385DA00034525008506A38DA500C6
:101988002311F602AA97C1BF8345B70185068D8F3B
:101998002319F602C1BF03C7018689476311F704FB
:1019A80083471500A38DF18603C7A18763F9E70272
:1019B8003945EF108014EF00905393578500238129
:1019C800A400A381F4004164935705016181A380B9
:1019D80004002382F400A382A400150479BEFD57F5
:1019E800E1BE834715002386F18683473500034708
:1019F8002500A207D98F2398F1868347550003470E
:101A08004500A207D98F2399F186A38004003704E3
:101A180005009DB6930715003ECA83C701863EC6DA
:101A280032478547138A01866305F70289476306AB
:101A3800F7440347250013043500E3190702D2478A
:101A4800A3800400238104001D8C42041364240035
:101A58002DB6130D3500834B2500938D3500238853
:101A68000182814A814C014502C8094B13890183CF
:101A7800854963990B0485466317D50263890C3C35
:101A880003D90187094A938901836C103945EF10FE
:101A98003045631B45396308090003C709007D19F0
:101AA8001377F70F7DD3C2472381A400A380F400E6
:101AB800D247B307FD4013950701A2473384FD4081
:101AC800498C65BC03440D0093071D003EC6137680
:101AD8002400630C062663800C0C1376140103DCC7
:101AE8000187631F36036C102285EF10703F631A5D
:101AF800650563080C00034609007D1C1376F60F84
:101B08007DD2324D83460D0013F62600630C063055
:101B1800C18A63990630050DFD1BE3950BFEA1BF35
:101B28006C103945EF10D03B631C650163080C004D
:101B3800034709007D1C1377F70F7DD3814CD1B77C
:101B4800814CE31035FD3256935586002380CD0035
:101B5800A380BD009355060161822381BD00A38146
:101B6800CD0093854D0063870C08131684016186A8
:101B780066856351060803268A00A10D93558600E1
:101B8800238ECDFEA38EBDFE935506016182238F61
:101B9800BDFEA38FCDFE9375040103D6018793780C
:101BA8001400E1C183452D00034C1D0093075D001F
:101BB800A205B3E58501034C3D003EC6420CB36562
:101BC800BC00034C4D0003DD2187620C336CBC0064
:101BD800638608028145228532CCEF107030631D80
:101BE8006501624619DE834709007D1693F7F70FF2
:101BF800F5D301BFAE8D45B7E31535F183D801871D
:101C08006C10228546CCEF10B02DAA8763166503A9
:101C1800E2486388080003460900FD181376F60FAA
:101C280065D283264A013256F18E6308DC0213E539
:101C380007011375F50FF1B503264A01B2556D8EEC
:101C4800E31135FFE30FCCFCE30D0DFC034609005F
:101C58007D1D1376F60F5DD2E9B7E39437EB814A21
:101C6800B9A8638C0806E39C0CFE8145228532CC1A
:101C7800EF101027631C65016246E30106EC8347F9
:101C880009007D1693F7F70FEDD3A5BDE31B35E7E4
:101C980093168401E18663D4061883278A00814A53
:101CA800854C13D787002380FD00A380ED0013D750
:101CB8000701E1832381ED00A381FD00910DC24757
:101CC8009386FBFF85073EC88347090093F7F70F04
:101CD800E39907E2B68B324D69BB6C10228532CC92
:101CE800EF101020631C65016246E30C06E0834791
:101CF80009007D1693F7F70FEDD321B5E31335E10E
:101D080093168401E18663D2060283278A00910D27
:101D180093D68700238EFDFEA38EDDFE93D60701A2
:101D2800E183238FDDFEA38FFDFEB257910D93D67D
:101D38008700238EFDFEA38EDDFE93D60701E18387
:101D4800238FDDFEA38FFDFE19BF63840C0403DC23
:101D580001876C103945EF10B018631B6501E30269
:101D68000CDA034609007D1C1376F60F7DD251BBB1
:101D7800E31935D93257910D13568700238EEDFE9E
:101D8800A38ECDFE135607016183238FCDFEA38F4B
:101D9800EDFE03462D0003471D0093075D00220654
:101DA800598E03473D003EC6937704024207598E79
:101DB80003474D006207518F3AD691C723AAE1869F
:101DC800814C0545EDBD83DC01876C102285EF1041
:101DD8003011631B6501E3860CD283470900FD1CA3
:101DE80093F7F70FFDD399BBE31A35D59316840102
:101DF800E186854A63D3060283278A00854A910DC6
:101E080013D78700238EFDFEA38EEDFE13D707019F
:101E1800E183238FEDFEA38FFDFE814C4DB5814AF2
:101E2800854C71BD150DCDB90547E31EE5C6325782
:101E3800910D93568700238EEDFEA38EDDFE9356FB
:101E480007016183238FDDFEA38FEDFEA9B9E38C23
:101E58000AC403D90187094A938901838145394511
:101E6800EF101008E31145C5E30F09C203C70900C5
:101E78007D191377F70F7DD33DB1034715002388EC
:101E8800018283C6A187A38DE186938C3500637A8E
:101E9800D73C130D3500034C25000146814D014503
:101EA8000144094B938A0183854B631E0C043289D4
:101EB8000546631DC50229466305C9002945EF008B
:101EC800D04303D90187094A93890183638C0D366E
:101ED8006C103945EF00D07C631345356308090061
:101EE80083C609007D1993F6F60FFDD2D247A38069
:101EF80084002381A4003307FD40A247131507017E
:101F08003384FC4075BE83490D0093071D003EC80D
:101F180013F9190093F529002909638805226384B8
:101F28000D0C03D801876319260393F509018DE584
:101F38006C104E8532CE42CCEF0090767246631913
:101F4800650562486308080083C50A007D1893F593
:101F5800F50FF9DD3289FDA0A9476307F600294589
:101F680042CCEF0090396248C28D6C103945EF00C1
:101F78003073631D650163840D2003C60A00FD1DCF
:101F88001376F60F7DD22949814D6DA82946814DDA
:101F9800E31275FDB25513D885002380BC00A380D9
:101FA8000C0113D80501E18123810C01A381BC0038
:101FB80013884C0063870D0A93958901E1856E8526
:101FC80063D1050A83258A00A10C13D58500238EC9
:101FD800BCFEA38EACFE13D50501E181238FACFEB8
:101FE800A38FBCFE6E8593F50901638F050E8345AB
:101FF8002D0003451D00A2054D8D83453D00C205FA
:10200800C98D03454D006205B367B5003ECC930703
:102018005D003EC803DD21876305C9004A85EF00DE
:10202800D02D03D6018781454E8532CEEF0050670B
:10203800631B6503724619C603C70A007D1613772A
:10204800F70F75D3424D03460D009375260063863E
:10205800051C418A6313061C050D7D1CE3150CFE47
:1020680081BDC28C49B7E31F75FD03D601876C108B
:102078004E8532CEEF00D0622A87631C6501724616
:1020880019C603C70A007D161377F70F6DD33247B9
:1020980015A003264A01B2556D8E631D7501E247EE
:1020A800638AC70063080D0003C60A007D1D137606
:1020B800F60F45DE03264A01B255E2476D8E638767
:1020C800C700136507011375F50FADBFE31C75F75E
:1020D80003C70A0005049305FCFF1377F70F3DF3C8
:1020E8004A862E8C424DD1B363970D126305C90001
:1020F8004A85EF00902003DD018781454E85EF007A
:10210800305A631B6501E3010DE803C70A007D1D12
:102118001377F70F7DD33DB7E31675F3E20993D92B
:102128008941854DE3D609FA03278A00910C135695
:102138008700238EECFEA38ECCFE13560701618325
:10214800238FCCFEA38FECFE61B7638E0D04A947E5
:102158006305F6002945EF00501A03D801876C1073
:10216800394542CCEF00D053631D650162486308CE
:10217800080003C60A007D181376F60F6DD22949A8
:10218800D1B5E31E75FFB256910C13D68600238E87
:10219800DCFEA38ECCFE13D60601E182238FCCFE93
:1021A800A38FDCFE294683452D0083461D00930737
:1021B8005D00A205D58D83463D003EC813F7090290
:1021C800C206D58D83464D00E206CD8E36D619C798
:1021D80023AAD1863289814D0545DDBD6305C90035
:1021E8004A85EF00901183DD01876C104E85EF0062
:1021F800304B631B6501E3870DE403C70A00FD1D2F
:102208001377F70F7DD349B3E31075D9E20993D952
:102218008941814D01BF328965BD150D3DBD85469A
:10222800E316D5CCB256910C13D68600238EDCFE6D
:10223800A38ECCFE13D60601E182238FCCFEA38F9A
:10224800DCFE6DB181453945EF009045E31045CB83
:10225800E30E09C883C609007D1993F6F60FFDD26F
:1022680071B1130D25000144014549B183470400AC
:1022780093F6270099C6C18B89E705047D176FF08F
:10228800CFFB1504E5BF83C701860547638DE700CB
:102298000947638FE716A380050023810500A38102
:1022A80005000D4445A823880182834935008347EA
:1022B8002500138A4500A209B3E9F900638D092AAC
:1022C800034B450093772B009DEF130C55000149F4
:1022D800894C138D0183854D83DB01876397290F13
:1022E800094B7D5C9389018381453945EF10403F57
:1022F80063176505FD1B63848B0583C7090093F786
:10230800F70FFDD32DA893771B00D5CB03D90187F1
:10231800094C938B018381455A85EF10603C631CFF
:102328008501630E090083C70B007D1993F7F70F2A
:10233800FDD3014929A0854701496302F508A24751
:10234800A38024011359890023812401A381A400B7
:102358003304FA4083C74A00898B63800722370514
:1023680004006FF0EFF5FD19E31B85FDB257110A64
:10237800050913D78700A30EEAFE13D70701230E1A
:10238800FAFE230FEAFEE183A30FFAFEE38909FAB6
:102398006396890193771B0091C3394B83DB0187CF
:1023A8006C105A85EF10C033E31FA5FBE3890BF8C7
:1023B80083C70C00FD1B93F7F70FFDD349B70149FD
:1023C800054C094D938C0183E1B703471C008347F3
:1023D8000C00110C22075D8F8347ECFFC2075D8F4D
:1023E8008347FCFFE207D98F3ED66C105A85EF1061
:1023F800202F631B9501E3840BF483470D00FD1B1D
:1024080093F7F70FFDD325BFE31BB5F30509E9B52E
:102418002388018283471500138A4500A38DF1861E
:1024280003C7A18763F9E71483493500834725006B
:10243800A209B3E9F90063800914034C4500137B32
:102448001C00290B5A85552D93772C00E28BA9EB9C
:10245800938B5A000149094D938D018303C71B00D3
:1024680083C70B0083DC018722075D8F83C72B009E
:10247800910BC2075D8F83C7FBFFE207D98F3ED65A
:102488006C106285EF00D02185466318A50BE388A0
:102498000CEA83C70D00FD1C93F7F70FF5D345B57C
:1024A80003D90187094D938C018381456285EF002B
:1024B800301F631BA501E30409E883C70C007D19DD
:1024C80093F7F70FFDD3B5B585470149E319F5E64D
:1024D800054CA94D894C138D018363978901B94B2C
:1024E8006304BB012945112D03D701876C105E8554
:1024F8003AC6EF00F01A631C95013247E30107E47E
:1025080083470D007D1793F7F70FEDD30DBDFD1928
:10251800E31785E3B257110A050913D78700A30EFD
:10252800EAFE13D70701230EFAFE230FEAFEE18322
:10253800A30FFAFEE39309FA19B5E312D5E00509EA
:10254800E39E29F1A9476304FB0029457D2383D92C
:102558000187894B138B018381453945EF0050145E
:10256800E31F75DDE38D09DC83470B00FD1993F745
:10257800F70FFDD3E9B301456DBB03C53A0083C727
:102588002A0022055D8D05054A056FF06FD383C7C4
:1025980001860547638AE7000947638CE702FD5710
:1025A800A380F4006FF0AFC60347350083472500CA
:1025B8006C1022075D8F83474500C2075D8F8347F4
:1025C80055000145E207D98F3ED6EF1060116FF034
:1025D800CFC383471500A38DF18603C7A187E3F016
:1025E800E7FC2145192B03C53A0083C72A002205B9
:1025F8005D8D83C74A00C207C98F03C55A006205AB
:102608005D8D41246FF06FC0FD5741652380F40054
:1026180005056FE0FFDF8347050041650505238059
:10262800F5008280797126D24AD052CC56CA06D695
:1026380022D44ECE5AC85EC662C49374F5032A8962
:102648002E8AB28A99E09304000493770904D9CBBF
:1026580097E0FE1FE78000FA138C018613790908BA
:10266800050A034BFAFFA1490144A9C85A8597E016
:10267800FE1FE78060FA97E0FE1FE78080F60325DB
:102688004C000580FD1997E0FE1FE78000FC97E0ED
:10269800FE1FE780A0FAAA8B97E0FE1FE78040F3B1
:1026A80003254C009E0B135B1B0097E0FE1FE78081
:1026B800C0F933E48B00FD14E39909FA63070900B4
:1026C8003354340123808A00850AD9F8B250225441
:1026D80092540259F249624AD24A424BB24B224CB6
:1026E8004561828097E0FE1FE780E0F1B5B70111F0
:1026F80006CE22CC26CA138401864AC84EC697E065
:10270800FE1FE78020EF97E0FE1FE78080ED48403E
:1027180097E0FE1FE78060F397E0FE1FE78040EB3D
:10272800484097E0FE1FE78040F297E0FE1FE780F1
:1027380080ED97E0FE1FE780C0EA484097E0FE1F63
:10274800E780A0F097E0FE1FE78080E8484097E028
:10275800FE1FE78080EF97E0FE1FE78080E8484093
:1027680097E0FE1FE78060EE97E0FE1FE78040E6F7
:10277800484097E0FE1FE78040ED83C4B187F1EC45
:102788007D4997E0FE1FE780C0E548407D1997E046
:10279800FE1FE78080EB97E0FE1FE78020EAAA890A
:1027A80097E0FE1FE780C0E24840FE09B3E49900C5
:1027B80097E0FE1FE78060E98580E31409FC97E055
:1027C800FE1FE78020E397E0FE1FE78080E1484096
:1027D80097E0FE1FE78060E797E0FE1FE78000E6CE
:1027E8002A8997E0FE1FE780A0DE48407E09B3648F
:1027F800990097E0FE1FE78040E597E0FE1FE7801D
:1028080040DE484097E0FE1FE78020E497E0FE1F87
:10281800E78000DC484097E0FE1FE78000E397E090
:10282800FE1FE78040DE97E0FE1FE78080DB484020
:1028380097E0FE1FE78060E197E0FE1FE78040D940
:10284800484097E0FE1FE78040E0F240624426855A
:102858004249D244B2490561828097E0FE1FE78071
:1028680040D84840FD1497E0FE1FE78000DE97E05F
:10287800FE1FE780E0D5484097E0FE1FE780E0DCD8
:10288800FDBD411106C622C426C2138401864AC072
:102898002A8997E0FE1FE780E0D597E0FE1FE780D2
:1028A80040D4484097E0FE1FE78020DA97E0FE1FFB
:1028B800E78000D2484097E0FE1FE78000D997E004
:1028C800FE1FE78040D497E0FE1FE78080D1484094
:1028D80097E0FE1FE78060D797E0FE1FE78040CFB4
:1028E800484097E0FE1FE78040D697E0FE1FE7804C
:1028F80040CF484097E0FE1FE78020D597E0FE1FB5
:10290800E78000CD484097E0FE1FE78000D483C4ED
:10291800B18763920418014597E0FE1FE780C0CF96
:1029280097E0FE1FE780E0CB4840FD4497E0FE1F9C
:10293800E780A0D197E0FE1FE78080C9484097E074
:10294800FE1FE78080D097E0FE1FE78080C94840DF
:1029580097E0FE1FE78060CF97E0FE1FE78040C743
:10296800484097E0FE1FE78040CE97E0FE1FE780D3
:1029780040C7484097E0FE1FE78020CD97E0FE1F44
:10298800E78000C5484097E0FE1FE78000CC4A85F5
:1029980097E0FE1FE78040C897E0FE1FE78060C40D
:1029A8004840FD141359190097E0FE1FE780E0C95D
:1029B80097E0FE1FE780C0C1484097E0FE1FE78010
:1029C800C0C8F1F483C7B18783C4A1879D8C8547AC
:1029D800638BF4104A8597E0FE1FE780E0C397E019
:1029E800FE1FE78000C04840F91497E0FE1FE7800B
:1029F800C0C597E0FE1FE780A0BD484097E0FE1FD6
:102A0800E780A0C4CDEC97E0FE1FE780A0BE97E06A
:102A1800FE1FE78000BD484097E0FE1FE780E0C248
:102A280097E0FE1FE780C0BA484097E0FE1FE780A6
:102A3800C0C197E0FE1FE780C0BA484097E0FE1F7C
:102A4800E780A0C097E0FE1FE78080B8484097E085
:102A5800FE1FE78080BF97E0FE1FE780C0BA97E0BF
:102A6800FE1FE78000B8484097E0FE1FE780E0BD02
:102A780097E0FE1FE780C0B5484097E0FE1FE7805B
:102A8800C0BC2244B240924402490545410117E3C3
:102A9800FE1F670063B897E0FE1FE78080B44840D8
:102AA800FD1497E0FE1FE78040BA97E0FE1FE7801D
:102AB80020B2484097E0FE1FE78020B999BD97E013
:102AC800FE1FE78000B24840FD1497E0FE1FE78034
:102AD800C0B797E0FE1FE780A0AF484097E0FE1F11
:102AE800E780A0B605B797E0FE1FE780A0B04A854B
:102AF80097E0FE1FE78040B219BF411122C426C2E9
:102B080006C64AC083C71186AA84138401866382D5
:102B1800071697E0FE1FE780E0AD97E0FE1FE7800D
:102B280040AC97E0FE1FE780A0AA97E0FE1FE78071
:102B380040AB97E0FE1FE780A0A997E0FE1FE78063
:102B480080AC97E0FE1FE780C0A997E0FE1FE780F2
:102B580020A897E0FE1FE780C0A897E0FE1FE78047
:102B680020A7054597E0FE1FE78000AB83C7B18724
:102B7800A1078607A29703D947016310090A83C7EB
:102B8800B187A29703C9C7017D196312090A83C7D0
:102B9800B187C10786073E940354440169C026855E
:102BA80097E0FE1FE78040A797E0FE1FE78060A33D
:102BB80097E0FE1FE780C0A1054597E0FE1FE7806C
:102BC800A0A57D1441E497E0FE1FE780A0A297E04E
:102BD800FE1FE78000A197E0FE1FE780609F97E057
:102BE800FE1FE78000A097E0FE1FE780609E97E049
:102BF800FE1FE78040A197E0FE1FE780809E97E0D8
:102C0800FE1FE780E09C2244B240924402490545F9
:102C1800410117E3FE1F670023A097E0FE1FE7802E
:102C2800409C7D1997E0FE1FE780809AB9B72685FA
:102C380097E0FE1FE780409E858097E0FE1FE780B3
:102C4800409A97E0FE1FE780A0983DBF97E0FE1FDF
:102C5800E780209997E0FE1FE78080979DB797E06F
:102C6800FE1FE7802099268597E0FE1FE780C09A1F
:102C7800B9BF97E0FE1FE780E09797E0FE1FE78067
:102C88004096484097E0FE1FE780209C97E0FE1F93
:102C9800E7800094484097E0FE1FE780009B97E09C
:102CA800FE1FE7800094484097E0FE1FE780E09908
:102CB80097E0FE1FE780C091484097E0FE1FE7803D
:102CC800C09897E0FE1FE780009497E0FE1FE7801A
:102CD8004091484097E0FE1FE780209797E0FE1F4D
:102CE800E780008F484097E0FE1FE780009697E056
:102CF800FE1FE780008F484097E0FE1FE780E094C2
:102D080097E0FE1FE780C08C484097E0FE1FE780F1
:102D1800C093054597E0FE1FE780009083C7B18701
:102D2800A1078607A29703D947016311090E83C734
:102D3800B187A29703C9C7017D19631D090E83C70F
:102D4800B187C1078607A29703D947016300091411
:102D5800268597E0FE1FE780208C97E0FE1FE7801E
:102D68004088484097E0FE1FE780208E97E0FE1FCE
:102D7800E7800086484097E0FE1FE780008D054504
:102D880097E0FE1FE78040897D19631E090C97E0D4
:102D9800FE1FE780208697E0FE1FE780808448407A
:102DA80097E0FE1FE780608A97E0FE1FE780408279
:102DB800484097E0FE1FE780408997E0FE1FE780C4
:102DC8004082484097E0FE1FE780208897E0FE1F7A
:102DD800E7800080484097E0FE1FE780008797E083
:102DE800FE1FE780408297D0FE1FE780807F484023
:102DF80097E0FE1FE780608597D0FE1FE780407D43
:102E0800484097E0FE1FE7804084F5BB97D0FE1F3F
:102E1800E780207D48407D1997E0FE1FE780E0822B
:102E280097D0FE1FE780C07A484097E0FE1FE780F2
:102E3800C081E5BD268597D0FE1FE780E07D97D04D
:102E4800FE1FE780007A4840858097D0FE1FE78004
:102E5800C07F97D0FE1FE780A077484097D0FE1F1D
:102E6800E780A07ED1BD97D0FE1FE78080774840DD
:102E780097D0FE1FE780607D97D0FE1FE7804075E2
:102E8800484097D0FE1FE780407CFDBD97D0FE1FCD
:102E9800E7804076268597D0FE1FE780E077E5BD7E
:102EA800797126D252CC06D622D44AD04ECE56CAF2
:102EB8005AC883C71186AA842E8A6387072A97D09F
:102EC800FE1FE780207397D0FE1FE780807197D0A0
:102ED800FE1FE780E06F97D0FE1FE780C07297D093
:102EE800FE1FE780007097D0FE1FE780606E97D0C6
:102EF800FE1FE780006F97D0FE1FE780606D83CAD2
:102F0800B18763910A0A13D5140097D0FE1FE78092
:102F1800A07097D0FE1FE780C06C97D0FE1FE78097
:102F2800E0712A8497D0FE1FE780806A13D52400B9
:102F380097D0FE1FE780406E97D0FE1FE780606A3B
:102F480097D0FE1FE780806F2A8997D0FE1FE78001
:102F5800206813D5340097D0FE1FE780E06B97D028
:102F6800FE1FE780006897D0FE1FE780206D2AC605
:102F780097D0FE1FE780C0653245060485470A05DD
:102F8800498C336989006309F90297D0FE1FE780ED
:102F9800606697D0FE1FE780C06497D0FE1FE78069
:102FA800206371A897D0FE1FE780A063FD1A97D011
:102FB800FE1FE780E061B1B793F72400638D071027
:102FC8007D4497D0FE1FE780C06197D0FE1FE78041
:102FD800E066AA89FE09B3E959017D1497D0FE1F5E
:102FE800E780005F93DA190069FC83C7B18703C4DF
:102FF800A1871D8C85476302F40C97D0FE1FE780DC
:10300800405E97D0FE1FE7806063AA89791497D045
:10301800FE1FE780E05B41E897D0FE1FE780805DF8
:1030280097D0FE1FE780E05B97D0FE1FE780405AED
:1030380063070A00FE09B3E9590123203A0197D032
:10304800FE1FE780005A97D0FE1FE780605897D090
:10305800FE1FE780405B97D0FE1FE780805897D01F
:10306800FE1FE780E056054593F4040897D0FE1F3D
:10307800E780805A99C497D0FE1FE780005E23A49A
:10308800A18603C4C186FD547D146316940CB25006
:1030980022541375F90F92540259F249624AD24ADE
:1030A800424B4561828097D0FE1FE78080537D1494
:1030B80097D0FE1FE780C051B9BF97D0FE1FE780A9
:1030C800605397D0FE1FE780C05197D0FE1FE7805E
:1030D800E056AA8991BF83290A007D444E857D1454
:1030E80097D0FE1FE780405393D9190097D0FE1F51
:1030F800E780204F97D0FE1FE780804D65F083C79B
:10310800B18703C4A1871D8C8547630CF4024E85E3
:1031180097D0FE1FE7804050791497D0FE1FE780B4
:10312800404C97D0FE1FE780A04AE30004E697D002
:10313800FE1FE780004B7D1497D0FE1FE7804049B3
:10314800EDB797D0FE1FE780E04A4E8597D0FE1F67
:10315800E780804C3DBD97D0FE1FE780804897D020
:10316800FE1FE780E0460DB71384018697D0FE1F47
:10317800E780404897D0FE1FE780A046484097D098
:10318800FE1FE780804C97D0FE1FE78060444840D0
:1031980097D0FE1FE780604B97D0FE1FE780A046C0
:1031A80097D0FE1FE780E043484097D0FE1FE78096
:1031B800C04997D0FE1FE780A041484097D0FE1F26
:1031C800E780A04897D0FE1FE780A041484097D0ED
:1031D800FE1FE780804797D0FE1FE780603F48408A
:1031E80097D0FE1FE780604603CBB187631A0B0EAA
:1031F80013D5140097D0FE1FE780004297D0FE1F1A
:10320800E780203E484097D0FE1FE780004497D0D3
:10321800FE1FE780A042AA8997D0FE1FE780403BA7
:103228004840860997D0FE1FE780204213D5240026
:1032380097D0FE1FE780403E97D0FE1FE780603A98
:10324800484097D0FE1FE780404097D0FE1FE78098
:10325800E03E2A8997D0FE1FE7808037484097D004
:10326800FE1FE780803E13D5340097D0FE1FE7800D
:10327800A03A97D0FE1FE780C036484097D0FE1F7F
:10328800E780A03C97D0FE1FE780403BAA8A97D0F2
:10329800FE1FE780E033484097D0FE1FE780E03A02
:1032A80013952A0033E5A9003369A9008547630D02
:1032B800F90497D0FE1FE780E03397D0FE1FE78020
:1032C8004032484097D0FE1FE780203897D0FE1F35
:1032D800E7800030484097D0FE1FE7800037CDA830
:1032E80097D0FE1FE780E02F48407D1B97D0FE1F38
:1032F800E780A03597D0FE1FE780802D484097D003
:10330800FE1FE7808034DDB593F724006388071A31
:10331800FD4997D0FE1FE780C02C4840FD1997D083
:10332800FE1FE780803297D0FE1FE7802031AA8AEF
:1033380097D0FE1FE780C0294840FE0AB3EA6A0119
:1033480097D0FE1FE780603013DB1A00E39309FC77
:1033580083C7B18783C9A187B389F9408547638C3F
:10336800F91297D0FE1FE780C0274840F91997D077
:10337800FE1FE780802D97D0FE1FE780202CAA8AA9
:1033880097D0FE1FE780C024484097D0FE1FE780F3
:10339800C02B639E090C97D0FE1FE780A02597D00D
:1033A800FE1FE7800024484097D0FE1FE780E029F1
:1033B80097D0FE1FE780C021484097D0FE1FE780C6
:1033C800C02863070A00FE0AB3EA6A0123205A01EB
:1033D80097D0FE1FE780E020484093F4040897D078
:1033E800FE1FE780802697D0FE1FE780601E4840BA
:1033F80097D0FE1FE780602597D0FE1FE780A020AA
:1034080097D0FE1FE780E01D484097D0FE1FE78059
:10341800C02397D0FE1FE780A01B484097D0FE1F0F
:10342800E780A022054597D0FE1FE780E01E99C4DB
:1034380097D0FE1FE780602223A4A18683C4C1869B
:10344800FD59FD14E38534C597D0FE1FE780601948
:10345800484097D0FE1FE780401F97D0FE1FE780A7
:103468002017484097D0FE1FE780201ED9BF97D06D
:10347800FE1FE78000174840FD1997D0FE1FE78020
:10348800C01C97D0FE1FE780A014484097D0FE1FAD
:10349800E780A01BFDBD97D0FE1FE780A01597D041
:1034A800FE1FE7800014484097D0FE1FE780E01910
:1034B80097D0FE1FE7808018AA8ADDBD032A0A007C
:1034C800FD49528597D0FE1FE780001597D0FE1F53
:1034D800E78020114840FD19135A1A0097D0FE1FA3
:1034E800E780A01697D0FE1FE780800E484097D04F
:1034F800FE1FE7808015E39609FC83C7B18783C95F
:10350800A187B389F94085476380F906528597D02A
:10351800FE1FE780601097D0FE1FE780800C4840B0
:10352800F91997D0FE1FE780401297D0FE1FE78059
:10353800200A484097D0FE1FE7802011E38B09D668
:1035480097D0FE1FE780E0094840FD1997D0FE1F7D
:10355800E780A00F97D0FE1FE7808007484097D0EC
:10356800FE1FE780800ED9BF97D0FE1FE780800836
:10357800528597D0FE1FE780200A81B3011122CC23
:1035880026CA4AC84EC652C456C206CE2A89AE8931
:1035980081440144FD5A138A01867D19631B590130
:1035A800F2406244D2444249B249224A924A0561F1
:1035B800828089E403C40900A14485099377140033
:1035C80085CF97D0FE1FE780000C97D0FE1FE780BD
:1035D800600A03254A000580FD1497D0FE1FE78086
:1035E800601597D0FE1FE780C00703254A0097D0D3
:1035F800FE1FE780201455B797D0FE1FE780C0094B
:10360800E9B7797122D406D626D24AD04ECE52CC0A
:103618001374F50319E01304000413750508138ADD
:103628000186138901863DC521498144A1A032C67E
:1036380097D0FE1FE780000403254A0085807D1986
:1036480097D0FE1FE780000F97D0FE1FE780E005A8
:10365800AA8997D0FE1FE780C00003254A009E096B
:10366800B3E4990097D0FE1FE780C00C7D14324662
:10367800630309004DFC0506B3D42401A30F96FE8D
:1036880045F4B250225492540259F249624A4561B3
:10369800828065D883C40500930984FF8505268543
:1036A8002EC697D0FE1FE780200197D0FE1FE78027
:1036B80060FC032549007D14858097D0FE1FE780B4
:1036C800600797D0FE1FE780C0F90325490097D00F
:1036D800FE1FE7802006B245E30D34FB69F055B7BD
:1036E800397156D25AD0935A2500135B150026DA41
:1036F800B3846A014AD84ED652D493593500AA9455
:1037080006DE22DC5ECE83C711862A892E8ACE94F5
:10371800638C0734054597D0FE1FE780E0F997D002
:10372800FE1FE78020F597D0FE1FE78080F34A85CB
:1037380097D0FE1FE78040F897D0FE1FE78080F300
:1037480097D0FE1FE780E0F15A8597D0FE1FE780EB
:10375800A0F697D0FE1FE780E0F197D0FE1FE78024
:1037680040F0568597D0FE1FE78000F597D0FE1FE2
:10377800E78040F097D0FE1FE780A0EE4E8597D0F7
:10378800FE1FE78060F397D0FE1FE780A0EE97D07A
:10379800FE1FE78000ED268597D0FE1FE780C0F169
:1037A80097D0FE1FE78000ED97D0FE1FE78060EB03
:1037B800014597D0FE1FE78020F097D0FE1FE780D5
:1037C80060EB97D0FE1FE780C0E9054597D0FE1F44
:1037D800E78080EE97D0FE1FE780C0E997D0FE1FF4
:1037E800E78020E897D0FE1FE780C0F103C48187F7
:1037F800631C041097D0FE1FE780C0E797D0FE1F18
:10380800E780A0EAAA8497D0FE1FE78080E597D0DA
:10381800FE1FE78020E697D0FE1FE78000E9AA890F
:1038280097D0FE1FE780E0E397D0FE1FE78080E493
:1038380097D0FE1FE78060E72AC697D0FE1FE78073
:1038480040E23245860985470A05B3E9A900B3E491
:1038580099006395F41693772900F9CB8149930A67
:10386800000297D0FE1FE780E0E097D0FE1FE780B8
:10387800C0E32AC697D0FE1FE780A0DE324593D961
:103888001900FD1A2A947E05B3693501E39B0AFCE9
:1038980097D0FE1FE78000DE97D0FE1FE780E0E0AC
:1038A8002AC697D0FE1FE780C0DB3245298C0588E1
:1038B80011C0A14463040A0023203A0103C481878C
:1038C80031EC97D0FE1FE78060E11379090863089F
:1038D800090097D0FE1FE780E0E623A4A18603C471
:1038E800C1864DEC054597D0FE1FE780E0DCF2501D
:1038F800625413F5F40F4259D254B259225A925ACB
:10390800025BF24B2161828097D0FE1FE78080D650
:103918007D1497D0FE1FE780C0D4D9BD97D0FE1F75
:10392800E78040D57D1497D0FE1FE78080D349BF3C
:1039380003C4818731E897D0FE1FE78020DA832906
:103948000A00130A00024E857D1A97D0FE1FE780F1
:10395800A0D64E9497D0FE1FE780C0D193D9190006
:1039680097D0FE1FE780E0CFE31F0AFC228597D09F
:10397800FE1FE78060D497D0FE1FE780A0CF97D0C6
:10398800FE1FE78000CE91B797D0FE1FE78080CE5C
:103998007D1497D0FE1FE780C0CC69BF014597D042
:1039A800FE1FE78060D17D1497D0FE1FE78080CC92
:1039B80097D0FE1FE780E0CA7DF42DB79387E4FF18
:1039C800F59BBDEF83C79187B1E303C4818739ECC9
:1039D80097D0FE1FE78080D083C79187E38407F0E4
:1039E80013792900E31009F0014597D0FE1FE780FD
:1039F800A0CC130410027D1497D0FE1FE78080C767
:103A080097D0FE1FE780E0C57DF4E9BD93772900D4
:103A1800CDDF130410027D1497D0FE1FE78080C508
:103A280097D0FE1FE780E0C37DF445B797D0FE1F0F
:103A3800E78040C47D1497D0FE1FE78080C241BF55
:103A480003C481871309F0FD7D1497D0FE1FE7801A
:103A580060C297D0FE1FE780C0C0E31724FF97D04D
:103A6800FE1FE780A0C7BDBD05451384018697D01A
:103A7800FE1FE78060C497D0FE1FE780A0BF4840C4
:103A880097D0FE1FE78000CB97D0FE1FE78060BD70
:103A9800484097D0FE1FE780E0C94A8597D0FE1FAF
:103AA800E78080C197D0FE1FE780C0BC484097D010
:103AB800FE1FE78020C897D0FE1FE78080BA4840E5
:103AC80097D0FE1FE78000C75A8597D0FE1FE78072
:103AD800A0BE97D0FE1FE780E0B9484097D0FE1FF0
:103AE800E78040C597D0FE1FE780A0B7484097D031
:103AF800FE1FE78020C4568597D0FE1FE780C0BB15
:103B080097D0FE1FE78000B7484097D0FE1FE78098
:103B180060C297D0FE1FE780C0B4484097D0FE1F10
:103B2800E78040C14E8597D0FE1FE780E0B897D068
:103B3800FE1FE78020B4484097D0FE1FE78080BF73
:103B480097D0FE1FE780E0B1484097D0FE1FE7807E
:103B580060BE268597D0FE1FE78000B697D0FE1F6F
:103B6800E78040B1484097D0FE1FE780A0BC97D0BF
:103B7800FE1FE78000AF484097D0FE1FE78080BB5C
:103B8800014597D0FE1FE78020B397D0FE1FE7803E
:103B980060AE484097D0FE1FE780C0B997D0FE1F9F
:103BA800E78020AC484097D0FE1FE780A0B80545C5
:103BB80097D0FE1FE78040B097D0FE1FE78080AB0C
:103BC800484097D0FE1FE780E0B697D0FE1FE780F9
:103BD80040A9484097D0FE1FE780C0B597D0FE1F88
:103BE800E78040B283C98187639A091897D0FE1F7E
:103BF800E78040A8484097D0FE1FE780A0B397D041
:103C0800FE1FE78080AAAA8B97D0FE1FE78060A5D9
:103C1800484097D0FE1FE780E0B197D0FE1FE780AD
:103C280060A5484097D0FE1FE780C0B097D0FE1F20
:103C3800E780A0A7AA8497D0FE1FE78080A248400B
:103C4800860497D0FE1FE780E0AE97D0FE1FE7807E
:103C580060A2484097D0FE1FE780C0AD97D0FE1FF6
:103C6800E780A0A42A8B97D0FE1FE780809F48405A
:103C78000A0BB3E4640197D0FE1FE780A0ABB3E45E
:103C8800740185476399F41E9377290063800714AC
:103C9800814A930B000297D0FE1FE780A09D484001
:103CA80093DA1A00FD1B97D0FE1FE780A0A897D0D3
:103CB800FE1FE780809F2A8B97D0FE1FE780609ABF
:103CC8004840DA997E0B97D0FE1FE780A0A6B36A1A
:103CD8005B01E3920BFC97D0FE1FE780A099484058
:103CE80097D0FE1FE78000A597D0FE1FE780E09BD6
:103CF8002A8B97D0FE1FE780C0964840B3C9690158
:103D080093F9190097D0FE1FE780C0A263830900CA
:103D1800A14463040A0023205A0183C9818763935D
:103D2800090897D0FE1FE780609B1379090863088C
:103D3800090097D0FE1FE780E0A023A4A18603C94D
:103D4800C186E30109BA014597D0FE1FE780C096F6
:103D580097D0FE1FE780009248407D1997D0FE1F3C
:103D6800E780409D97D0FE1FE780A08F484097D0FE
:103D7800FE1FE780209CE31D09FCADB697D0FE1F0F
:103D8800E780408F4840FD1997D0FE1FE780809A52
:103D980097D0FE1FE780E08C484097D0FE1FE78051
:103DA800609999B597D0FE1FE780C08C4840FD19EF
:103DB80097D0FE1FE780009897D0FE1FE780608AA3
:103DC800484097D0FE1FE780E09691BF83C981875E
:103DD800639F090697D0FE1FE7804090032A0A00D8
:103DE800930A0002528597D0FE1FE780E08C97D097
:103DF800FE1FE78020884840FD1AD29997D0FE1F01
:103E0800E780409397D0FE1FE780A0854840135A6B
:103E18001A0097D0FE1FE780E091E3950AFC4E85D3
:103E280097D0FE1FE780408997D0FE1FE7808084E7
:103E3800484097D0FE1FE780E08F97D0FE1FE780AD
:103E48004082484097D0FE1FE780C08EF9BD97D0CA
:103E5800FE1FE78020824840FD1997D0FE1FE780AB
:103E6800608D97C0FE1FE780C07F484097D0FE1F37
:103E7800E780408CB1BF9387E4FFF59BE1E383C7FC
:103E88009187B1EF83C981876396090897D0FE1F90
:103E9800E780C08483C79187E38607A41379290044
:103EA800E31209A4014597D0FE1FE780E0801309BB
:103EB800100297C0FE1FE780E07B48407D1997D02D
:103EC800FE1FE780208797C0FE1FE7808079484063
:103ED80097D0FE1FE7800086E31D09FC21B4937785
:103EE8002900CDD39309100297C0FE1FE780807880
:103EF8004840FD1997D0FE1FE780C08397C0FE1F7A
:103F0800E7802076484097D0FE1FE780A082E39D97
:103F180009FC8DBF97C0FE1FE780C0754840FD199A
:103F280097D0FE1FE780008197C0FE1FE78060736F
:103F3800484097C0FE1FE780E07FB9B703C9818773
:103F48009309F0FD97C0FE1FE780C07248407D19B5
:103F580097C0FE1FE780007E97C0FE1FE780607055
:103F6800484097C0FE1FE780E07CE31D39FDC5BCD3
:103F7800411122C41384418A13F6F50F1385418E2B
:103F8800A28506C6612CA2852244B240130600040D
:103F980011454101F1AB93F7F50399E791C5014646
:103FA80081451305500821A3238A018282808280DB
:103FB8007167938781831307072098C3214723924A
:103FC80007002383E7008280411122C406C603C488
:103FD800919E83C7819E6387870203C741831DE340
:103FE8001D8C1374F40722869385C19E13858196D0
:103FF800592422869385C19E130550084D2985476B
:10400800238AF182B2402244410182804111130681
:1040180000049385418A114506C6992BB2401306C0
:1040280000049385C1AC0545410199A383C71500D8
:1040380003C5050003C76500A207C98F03C525008E
:104048004205C98F03C5350062055D8D938781835D
:104058002383E70003C7550088C3A382E70003C78B
:10406800450003C655002382E70083C6450083C583
:10407800650035BF138781831C4393D6870023804F
:10408800F500A380D50093D60701E1832381D500ED
:10409800A381F500834767002383F5008347570012
:1040A800A382F500834747002382F500828082803F
:1040B800411106C63124ED3D1725000013050542C0
:1040C800EF00B07217D5FE1F130585E4EF00B0723C
:1040D8001385C1A6EF00907213858181EF003074BB
:1040E80013850181EF00B0731385C1A8EF00F07646
:1040F800EF00D0701385C1AAEF003076EF00107082
:1041080017D5FE1F130505E9EF00707117D5FE1FBF
:104118001305C5E7EF00B0700D24EF00B073EF0092
:10412800107375DD91284D359D24EDBF03C7C1ACD3
:104138009D47631FF7004111130600049385C1AC26
:1041480006C63D21B24085472388F182410182801D
:1041580083C7018491C7130600049385C1AC09A9DC
:1041680085472380F184C5BF03C7F183854763145E
:10417800F700A38F0182828083C701849DCF4111FC
:104188009385C1B01385C1AC06C6EFD08FA5137651
:10419800F50F9385C1B013052008112E8547A38F0D
:1041A800F1821387F1838347070093F7F70FE5FF41
:1041B800B2402380018441018280828083471508B0
:1041C800034505083385A7401375F507130515F84A
:1041D80013351500828023000508A3000508828096
:1041E800011122CC2EC606CE2A84C93FB24501C988
:1041F80083470408850793F7F7072300F4088347E4
:1042080014083307F40085072300B70093F7F7076E
:10421800A300F408F240624405618280411122C47F
:1042280026C24AC006C62A892E84B384C5006318EC
:104238009400B2402244924402494101828083059D
:1042480004004A850504693FDDB78347050803472D
:1042580015086300F702AA97838707002380F500F3
:1042680083470508850793F7F7072300F5080545F1
:10427800828001458280011152C406CE22CC26CA12
:104288004AC84EC60347150883470508014A630014
:10429800F702B2892E89AA840144B3058900137AEA
:1042A800F40F6306340126854D3705047DF5F24089
:1042B80062445285D2444249B249224A0561828009
:1042C800B717004003A7870C411106C613670708F4
:1042D80023A4E70C03A7470D3D9B23AAE70C03A7DC
:1042E800070D1367070123A8E70C03A7070C3D9BDD
:1042F80023A0E70C03A7470D1377F7F723AAE70CCA
:1043080003A7070C1367070823A0E70CEFC0BFF447
:104318000145EFC07FF795450545EFC09FF8B7E722
:1043280000E0370700041385819623A0E710653560
:10433800B2401385418E410179BDB717004003A7EC
:10434800870A7D761306F67F1367072023A4E70AFA
:1043580083A6870A056713070780D98E23A4D70A7F
:1043680083A6470B93F6F6DF23AAD70A83A6070A84
:1043780093E6062023A0D70A83A6470BF18E23AA2B
:10438800D70A83A6070A558F23A0E70A828041111E
:1043980022C406C626C24AC0000883C4519683C7F1
:1043A8004196638697029D8C93F4F4079387F400F3
:1043B80093F7070F0A893301F1408A85268613850A
:1043C800418E553D0A85A685EFC05FF04A811301ED
:1043D80004FFB2402244924402494101828009E923
:1043E800378700408347370093F70708A301F70092
:1043F8002386A1B4014582808347050093F6870789
:1044080095CE411122C42A84172500001305052DD5
:1044180006C6EF00B05D83450400172500001305AC
:10442800E52CEF00B05C172500001305A52DEF0063
:10443800F05BB24022447D5541018280939687010A
:10444800E18613F7F7078345250003461500938790
:10445800C1B463DF0600E1463307D702BA970547C0
:104468002386E7002382B700A382C7000145828024
:10447800E1463307D702BA9705472386E70C23821C
:10448800B70CA382C70CDDB71377F507E1463307EE
:10449800D70262059387C1B46185BA976356050050
:1044A80023860700014582802386070CE5BF137722
:1044B800F50799E17D5545EEE147B307F70201118C
:1044C80026CA9384C1B406CE22CC4AC84EC67955B2
:1044D800A69783C6C700B1CA93F635007555B1E6ED
:1044E800154433548702930600038CCBD0CB23ACFE
:1044F80007003304D402931627003694B786004089
:104508009389060293862602A299369415E623809B
:10451800090003C7570085476304F704834704006D
:1045280093F7C70F2300F4000145F2406244D244D8
:104538004249B2490561828003C947006373260175
:10454800328961453307A7024A861379F90FBA946D
:104558008844EF00503E2380290103C7540065BFFB
:104568008347040093F7C70F93E7170065BF82805E
:104578009376F50799E17D5525E26147B387E60211
:104588001387C1B479553E978347C70CB1C793F7D2
:1045980035007555B1E39547B3D7F6021305000307
:1045A8002328B70C232AC70C232C070C0347570CC6
:1045B800B387A70213952600AA97378500401305ED
:1045C80025023E958547630AF7008347050093F760
:1045D800370F2300F500014582808347050093F7D4
:1045E800370F93E74700F5B71377F5079547B357A4
:1045F800F702930600030A0762056185B387D702AD
:10460800BA973787004013072702BA9703C70700EE
:10461800634805001367C7002380E70001458280CF
:1046280013673700D5BF1377F5079547B357F702D8
:10463800930600030A0762056185B387D702BA9714
:104648003787004013072702BA9703C70700634854
:104658000500137737072380E70001458280137729
:10466800C70B13672700C5BF411106C69387C1B49E
:10467800938681DD138581ED94D3A8CB938681E55C
:10468800138581D594DFA8D7138781CD938581D9E8
:10469800138681E1938681E9138581D198C723A484
:1046A800E70C23A0B70E23ACC70E23A8D71023A46A
:1046B800A712B7870040238007001305C0FC238694
:1046C800A7004207A386A7004183C2052398E700F5
:1046D800C1814206239AB7004182C206239CC700C3
:1046E800C182239ED700A9462381D7026947238325
:1046F800E7022385E7022387E7022389D702A381FC
:104708000700130790022380E700B716004003D77D
:10471800A6011367070C239DE6007D572383E70056
:10472800130710F8A380E7001D472381E700EFC0B7
:104738003FC5B240014541018280411193870185FF
:1047480022C4804326C24AC006C6AA842E8919E418
:10475800B240224492440249410182801C4881C7E8
:10476800CA85268582970040DDB7011106CE8347AA
:1047780025002306F1008347550003474500A2079B
:10478800D98F93F7F77F2317F10083473500172553
:1047980000001305A5F78D8BA306F100EF00102587
:1047A8008356E1000346D1008345C1001725000068
:1047B8001305C5F6EF00902317250000130585F4AF
:1047C800EF00D02268000D39F2401335150005615D
:1047D8008280411117250000130545F306C6EF0036
:1047E800F020938581F183D7650003D7450083D6F0
:1047F800250003C6150083C505001725000013050D
:1048080025F4EF00B01EB24017250000130585EF10
:1048180041016F00B01D5D7183C781F186C6A2C4D6
:10482800A6C2CAC04EDE52DC56DA5AD85ED662D468
:1048380066D26AD06ECE13F6070693050002138778
:1048480081F16307B63C930500046304B644014450
:104858002DEE8D8B05466380C7208DCB8946638EF0
:10486800D73017250000130565E7EF003018172526
:104878000000130565FDEF0010291725000013053A
:1048880065E8EF00B016B137014481A0BA8683C746
:1048980091F1254703D5A1F1E365F7FC172700003F
:1048A800130747DF8A07BA979C43BA9782879C46C3
:1048B800238007009C46A38007008947BDA813757D
:1048C800F50F313E23A401F205442285B640264463
:1048D80096440649F259625AD25A425BB25B225C4C
:1048E800925C025DF24D61618280935585008D472F
:1048F80013F8F50F1376F50F6394F5049307E00E9C
:104908006311F60817250000130545E0EF00100EA7
:10491800172500001305C5E8EF00F01E1725000055
:10492800130545DEEF00900C9387C1849C4395DB0B
:10493800984323A0E1F283C7470023A4F1F269B7A3
:104948003D47639EE50217250000130525DCEF00AF
:10495800F009172500001305E5E6EF00D01A172522
:104968000000130525DAEF007008938741849C4303
:10497800E38907EE9843DC4323A0E1F27DBFE3E23D
:10498800B7EE9C4E014783C6070085EA172500004D
:104998001305C5D432C62EC4EF0050053246A245D1
:1049A800172500001305C5F4EF0050041725000073
:1049B800130545D5EF0090036DB503C517006315C2
:1049C8000501630CE63E0507B69775BF83C7070068
:1049D800ADB79387510723A0F1F28547B9BF03A963
:1049E80086019374F50F01449309F00F130AF00F31
:1049F800914A154B894B8347090099EF31C8A38A1F
:104A08009106854781451D45238AF1063D33EFF020
:104A1800EFDF23A401F255BD83471900638F5701C7
:104A2800638067036397770183495900639334016F
:104A38000544834709003E997DBF034A3900D5BF25
:104A4800E39934FFE3170AFE4A8505332A84D5B76C
:104A580023A401F239B583C65107E38406E083C66F
:104A680091F1194683D4A1F103494700638EC60426
:104A78006369D600E39706DE1C47238007001C47BE
:104A88001DBD29466387C608AD47E39CF6DC004F89
:104A980093F4F40F9309F00F130AF00F814A914B26
:104AA800154C972C0000938C6CC6172D0000130D25
:104AB800EDD4972D0000938DEDC483470400B1EF2A
:104AC800D68521459D39FDBBA18093072002E39A35
:104AD800F4D817250000130565C3EF0020711725CA
:104AE80000001305E5CFEF0010021725000013059D
:104AF80065C1EF00A06F938701859C43E38307D6C8
:104B080003C7C701E31B27FFD84B9C4F23A0E1F243
:104B18002DB51847230007000DB583471400638897
:104B2800770163808703834704003E9479B78349FC
:104B38002400034A3400E31839FFE39644FFA28AAD
:104B4800DDB7E31239FF6387440303463400668503
:104B5800034B24000D8A32C4EF0040692246DA85EF
:104B68006A85EF00A0686E85EF0040685A85EFF00F
:104B7800BF9155BF2285D53E7DB783C65107E382D5
:104B880006CE83C691F1034447006388C6049DCED0
:104B98008D47E398F6CC83D7A1F1E39B07EA172565
:104BA80000001305A5B3EF006064A2851725000077
:104BB800130545C8EF00806317250000130585B469
:104BC800EF00C0622285EFF03FA2EDB914472380C1
:104BD80006001847A30007008DB383D7A1F1E39916
:104BE80007E617250000130565AFEF002060A285D2
:104BF80017250000130585C2EF00405F1725000048
:104C0800130545B0EF00805E2285EFF0DFA16DB996
:104C18008D8B85466395D704938701859C4383468E
:104C2800470081EF17250000130545ABEF00005C36
:104C3800172500001305C5C23DB9D84319CF03C6CF
:104C4800C701631CD600138681F2938501F2138590
:104C580081F10297E35A05C6F1B79C43D9B70947D2
:104C6800E392E7FC938701859C4303D7C1F1218335
:104C7800D5DB944789CE03C6C701631AE6001386BD
:104C880081F2938501F2138581F18296E1B79C4305
:104C9800C5B71384C1841C40DDC783C7570003C749
:104CA80091F16317F70E83D7C1F11147638FE702BC
:104CB80015476383E70617250000130525A23D2342
:104CC80017250000130505BEEF00E0631725000057
:104CD800130545A3212B17250000130525A039230B
:104CE80017250000130545BF79B6172500001305E1
:104CF800E5A1ED2917250000130505B8EF00A06010
:104D080017250000130505A0D5211C40984783D717
:104D1800C70023A0E1F215B1172500001305059F70
:104D2800F12117250000130525B6EF00C05D1725F2
:104D380000001305259D5D291C40984B83D747012A
:104D480023A0E1F2DDBE138481841C40B1C383C774
:104D5800670003C791F1631DF70203D7C1F19D47AF
:104D6800E31BF7F4172500001305459A4121172581
:104D780000001305A5B4412B1725000013058598DD
:104D8800B5211C40984383D7470023A0E1F275B6AC
:104D9800938701858043938481F2138901F2938973
:104DA80081F1E30A04F25C4499E30040DDBF268602
:104DB800CA854E85829775F901BE23A0F1F209478D
:104DC800E316E8C003C7270083C73700A207D98FB7
:104DD800ADB60111014506CEEFF06FE0239A01064A
:104DE800B70740009387070868003EC6EFF0CFE09A
:104DF800680023060100EFF02FE081450545EFF03C
:104E0800DF93F24005618280938781F14111214649
:104E1800AA853E8526C206C622C44AC0292E03D6C4
:104E2800E1F113070010AA84637EC7028307050017
:104E380063CA0702172500001305458A452E172562
:104E480000001305A5ADC121172500001305858BAA
:104E5800712E2244B24092440249130500084101D0
:104E68006FF08FF8938541F323A0B1F223A2C1F22A
:104E780023A4C1F2238601F22E8909CE8387040078
:104E880063CA07002244B2409244024901454101E5
:104E98006FF00FEEEFF03F984DDD9C4803D4E1F141
:104EA80063F387003E848C4423A281F293F7350094
:104EB8009DCF9307001063F687021725000013059E
:104EC800E5812D2617250000130545A52D29224427
:104ED800B24092440249172500001305A5824101FA
:104EE80031A62286138541F3B92423A021F38C44EB
:104EF800228613050008EFF08FDB9C4803D7E1F109
:104F080063F8E70093F7F70381E785472386F1F213
:104F1800B2402244924402494101828013060008AB
:104F2800AE86138781F16311C5040C475047B695C7
:104F3800158E23A0B1F223A2C1F219C26FF02FD7A8
:104F480083C7C1F291C7238601F201468145FDB7A7
:104F580083D7E1F18DC78307070063D207020146B3
:104F6800814501456FF0CFE09377F50793874704B4
:104F78008A07BA9703A3C7006303030002838280EA
:104F880039E52E87B5C1938781F18C47D047BA950B
:104F9800198E23A0B1F223A2C1F205EA4111938729
:104FA80041F306C623A0F1F2EFF0FF8619E5B240FF
:104FB8001305000841016FF02FE3B2400146814517
:104FC8001305000841016FF08FCE6FF06FDA937709
:104FD800F5079387C7048A07138781F1BA9703A354
:104FE800C7006303030002838280938781F188CF1F
:104FF800238F0714828023A6A184828083C7610738
:10500800230EF50013870185144381EA08C3232082
:1050180005008507238BF10682803687F5B783471D
:1050280005005041938681F1139787016187635A80
:10503800070013F7F707130747040A07369750C7FF
:1050480082809387C7048A07B697D0C7828003C532
:10505800410782806FF04FE1828017070000130735
:10506800070258C117070000130747FF232405004C
:105078002326050018C982808280797122D406D639
:1050880026D24AD04ECE83471500130710022E842D
:10509800034945006381E70613072002AA84638B4E
:1050A800E702130700026395E70683477500034686
:1050B80065008C41A2075D8E2800B5282C004A8522
:1050C800EFE0DFF60145B250225492540259F249FA
:1050D8004561828003443500834525004A852204C2
:1050E8004D8C93751400EFE09FFC9355140085894F
:1050F8004A855937C1BF2C004A85B289EFE09FF72E
:1051080008401D462C0005289D4723A0F9005DBFD7
:105118001725000013054582D12883C514001725DB
:10512800000013056582D920171500001305855D59
:1051380075287D5549BFB3C7A5008D8B3307C500BA
:1051480081E78D4763EEC700AA876370E50A83C6C7
:10515800050085078505A38FD7FEE3EAE7FE828071
:1051680093763500AA8791CA83C605008507850509
:10517800A38FD7FE93F63700FDB79376C7FF138644
:1051880006FE63F0C70683A3050083A2450083AF2C
:10519800850003AFC50083AE050103AE450103A337
:1051A800850183A8C5019385450223A0770003A83C
:1051B800C5FF23A2570023A4F70123A6E70123A8CC
:1051C800D70123AAC70123AC670023AE1701938731
:1051D800470223AE07FF75B790419107910523AEAB
:1051E800C7FEE3EBD7FEE3E4E7F6828039713EDAE7
:1051F8002ED232D436D63AD842DC46DE93870182A4
:1052080022CC804326CA06CEAA8409C41C4C99E342
:10521800228515230C4454102686228536C6EF00B5
:10522800F016F2406244D24421618280011126CAFC
:105238004AC806CE22CC4EC652C4AA842E8901C5BD
:105248001C4D91E3CD299C4C804499E32685E521AA
:10525800971700009387C775631CF402C0408357F3
:10526800C400A18BB1C71C48A1C7FD59294A1C44D9
:1052780083450900FD17B1E91CC463DE07062286D1
:10528800A94526857120FD576308F502294535A0F3
:10529800971700009387C7736314F4008044C1B75D
:1052A800971700009387C76EE31BF4FAC04445BF05
:1052B800A2852685312A55D97D55F2406244D244CB
:1052C8004249B249224A056182801CC4050963D754
:1052D8000700184C63CBE700638945011C4013871E
:1052E800170018C02380B70059B7228626850D20DD
:1052F800E31F35F7D1B71C401387170018C029479B
:105308002380E70061B793870182AA85884339BF64
:10531800011122CC26CA4AC806CE4EC6AA842E89B6
:10532800328401C51C4D91E33921971700009387FA
:1053380027686319F406C0401C4C1CC48357C4007A
:10534800A18BC9C31C48BDCF1C4808409379F90FED
:105358001379F90F1D8D5C486346F500A2852685F3
:10536800652C2DE51C440505FD171CC41C4013873E
:10537800170018C0238037015C486389A70083574A
:10538800C400858B81CBA9476316F900A2852685C1
:1053980061240DEDF24062444A85D2444249B24943
:1053A8000561828097170000938787626314F40071
:1053B800804459B7971700009387875DE31EF4F67A
:1053C800C0449DBFA285268521203DDD7D59D9B7E2
:1053D80041119387018226C2844322C44AC006C66B
:1053E8002A892E8489C49C4C99E32685A926971777
:1053F80000009387E75B631CF402C0400317C400F6
:1054080093170701C18393F68700B5EE93F607015A
:105418009DEEA5472320F900136707042316E4002F
:105428007D55B24022449244024941018280971737
:1054380000009387E7596314F4008044C1B79717B5
:1054480000009387E754E31BF4FAC04445BF918BEF
:105458008DC74C5889C9930744046384F5004A856D
:105468009123232A04028357C4002322040093F7BC
:10547800B7FD2316F4001C481CC08357C40093E7EB
:1054880087002316F4001C4881EF8357C4001307D4
:10549800002093F707286385E700A2854A85A521A0
:1054A8008357C40013F7170005C75C48232404007A
:1054B800B307F0401CCC1C480145A5F78317C4006E
:1054C80013F7070839DF93E707042316F40089BFA9
:1054D800898B014791E3584818C4F1BF83D7C500A9
:1054E800011122CC26CA06CE4AC84EC613F7870039
:1054F800AA842E8471EFD841634DE000B841634A15
:10550800E0000145F2406244D2444249B249056193
:10551800828058547DD703A904009396370123A0AD
:10552800040063DD060670488357C400918B99C751
:105538005C401D8E5C5899C33C401D8E5C540C50D9
:10554800814626858297FD570357C400631DF500E1
:105558009440F54763E8D706B70740208507B3D7D7
:10556800D700858BA5C31C48232204001CC09317B1
:10557800370163D80700FD576314F5009C4091E399
:1055880068C84C5823A02401ADDD93074404638404
:10559800F50026850129232A0402A5B70C500146E7
:1055A800854626850297FD572A86E31FF5F69C4017
:1055B800A5DF75476385E70059476394E70423A08F
:1055C800240181B7136707042316E4007D551DBF26
:1055D80083A90501E38709F203A905008D8B23A0A0
:1055E800350133093941014791E3D84918C4E35AD1
:1055F80020F11C540C50CA864E8626858297634932
:10560800A0008357C40093E707042316F4007DBF66
:10561800AA993309A940E1BF9C49B9CF011122CC0D
:1056280006CE2A8411C51C4D81E72EC62922B24513
:10563800971700009387C737639BF5004C40839703
:10564800C50095C722856244F240056141BD9717A0
:1056580000009387E7376394F5000C44CDB797179C
:1056680000009387E732E39CF5FC4C44C9BFF24045
:10567800624401450561828001458280411122C44E
:1056880006C62A842316B5002317C5002320050063
:1056980023220500232405002322050623280500CC
:1056A800232A0500232C0500214681451305C5053D
:1056B800EFB0FF90971700009387E7B45CD0971777
:1056C8000000938747B71CD497170000938787BBC0
:1056D8005CD497170000938747BE00D01CD8B2400F
:1056E80022444101828097050000938525F389AA09
:1056F800411126C2130680069384F5FFB384C402C1
:105708004AC02E8922C406C69385440781262A8466
:1057180001CD2320050023222501310508C4138665
:1057280084068145EFB0BF892285B2402244924465
:105738000249410182801C4DBDE3411106C622C4C5
:1057480097070000938767FA1CD59717000093877F
:10575800E72D9C4323240504232605042328050458
:105768006314F50085471CCD2A841D2848C022856E
:10577800052808C422852D2048C448400146914583
:10578800F53D08440546A545D53D48440946C94563
:10579800F53585471CCCB240224441018280828085
:1057A8004111971700009387672826C284434AC08F
:1057B80006C69C4C22C42A8999E32685AD3F93846A
:1057C80084048044DC40FD1763D607009C40B9CFB1
:1057D8008440C5BF0317C40039E7C1778507232272
:1057E80004062320040023220400232404005CC4AC
:1057F80023280400232A0400232C04002146814581
:105808001305C405EFB0AFFB232A0402232C0402BE
:1058180023240404232604042285B240224492440B
:105828000249410182801304840671BF91454A856B
:10583800C13588C051FDB1472320F9000144E9BFB3
:10584800797122D44AD052CC56CA5AC85EC606D6F6
:1058580026D24ECE2A8AAE8A130485040149054B06
:10586800FD5B09ECB25022544A8592540259F24920
:10587800624AD24A424BB24B456182800444832932
:105888004400FD1963D409000040E1BF83D7C40078
:10589800637BFB008397E40063877701A6855285C5
:1058A800829A3369A90093848406E1BF1971A6DA44
:1058B800AE848395E500A2DC86DE328463DC0500D5
:1058C80083D7C40023A0060093F7070885E793074A
:1058D80000401DA0300836C6EF00B023B246E341B1
:1058E80005FE7247BD67F98F7977BA9793B71700A6
:1058F8009CC2F1BF930700041CC0F6506654D654EE
:1059080001450961828083D7C500011122CC06CEEA
:1059180026CA4AC8898B2E8489CF930774041CC071
:105928001CC885475CC8F2406244D24442490561BC
:10593800828074003000AA84953FA2452A89268572
:10594800312201ED8317C40013F7072069FFF19B8B
:1059580093E727002316F400C9B797070000938739
:10596800C7D89CD48357C40008C008C893E7070861
:105978002316F400A2475CC8B24791CF8315E40010
:105988002685EF00B01B01C98357C400F19B93E73C
:1059980017002316F4008357C4003369F90023164F
:1059A800240151B7DDC183A7C5FF411122C406C632
:1059B80026C21384C5FF63D307003E94AA84EF0070
:1059C800D01E938741859C4381EF2322040023AA9C
:1059D80081842244B2402685924441016F00101D03
:1059E800637EF40014403307D4006396E7009843BD
:1059F800DC43369718C05CC0D9BFBA87D84319C3EF
:105A0800E37DE4FE94433386D700631F860010408D
:105A1800B29694C33386D700E31DC7FA10435843A0
:105A2800B29694C3D8C375B76375C400B1479CC018
:105A38004DB71040B306C4006316D700144358434B
:105A4800B29614C058C0C0C369B78280011126CA73
:105A580093843500F19806CE22CC4AC84EC6A104DC
:105A6800B14763F3F404B14463E2B4042A89EF0054
:105A7800D0139387418598433A8439E09387818589
:105A88009C4391E781454A85892F23ACA184A6854B
:105A98004A85A127FD5963193507B1472320F90025
:105AA8004A85EF00B01029A0E3D004FCB1471CC11F
:105AB8000145F2406244D2444249B24905618280BC
:105AC8001C40858F63CF0702AD4663F6F6001CC005
